:108000003140FE2B15425C0175F335D0085A3F40D4
:1080100000000F93072482455C012F839F4FA481AA
:10802000001CF9233F4000000F93062482455C01A9
:108030001F83CF43001CFA2304412453B240805ACB
:108040005C015F4204025FD3C24F0402B240522D72
:10805000C001F2400300C901E242CA018243C001EB
:108060005F4204027FD00600C24F04025F420A0250
:108070007FD00600C24F0A025F4204027FD2C24F85
:1080800004025F4204027FD01000C24F04025F422C
:1080900005027FD01000C24F05025F420B027FF045
:1080A000EFFFC24F0B025F4224025FD3C24F240294
:1080B0005F422A027FF0FEFFC24F2A025F424A025D
:1080C0007FD00300C24F4A021F426C013FF0F3FF12
:1080D000824F6C011F426E013FF0FDFF824F6E0127
:1080E0005F4202027FE01000C24F02021F426E0197
:1080F0002FF3F0235F4202027FF0EFFFC24F020234
:1081000032D0400082436001B24030006201B24090
:108110004A10640132C0400003433F40B0631F83F4
:10812000FE231F426E013FF0F0FF824F6E011F429F
:1081300002013FF0FDFF824F02015F4203027FE038
:108140001000C24F03021F4202012FF3EA235F42D5
:1081500003027FF0EFFFC24F03025F4202027FE2A1
:10816000C24F02025F4222025FE3C24F2202034378
:108170003F404FC31F83FE2303433F404FC31F8332
:10818000FE2303433F404FC31F83FE2303433F406F
:108190004FC31F83FE23E13F32D0F000FD3F30404C
:0481A000A2810013A5
:10FF80009E819E819E819E819E819E819E819E8179
:10FF90009E819E819E819E819E819E819E819E8169
:10FFA0009E819E819E819E819E819E819E819E8159
:10FFB0009E819E819E819E819E819E819E819E8149
:10FFC0009E819E819E819E819E819E819E819E8139
:10FFD0009E819E819E819E819E819E819E819E8129
:10FFE0009E819E819E819E819E819E819E819E8119
:10FFF0009E819E819E819E819E819E819E810080A8
:040000030000800079
:00000001FF
