:108000003140002CB240805A5C013F4000000F9389
:1080100005242F839F4FEC80001CFB233F40000072
:108020000F9304241F83CF43001CFC233040348073
:108030003040E8803140002C0441B240805A5C015D
:108040005F424A027FD00300C24F4A021F426C01C6
:108050003FD00C00824F6C011F426E013FF0FCFFCD
:10806000824F6E011F4202012FC3824F02011F4245
:1080700002012FF3F1231F426C013FF03FFF824FBB
:108080006C01F24080FF0202F2430402B240522D22
:10809000C001E242CD01F2400300CE018243C001A3
:1080A000F24020000A02C2430302F240DAFF050256
:1080B000F2400F002202F2432402C2434202F24085
:1080C00003004402C2432203F2432403F240A5FF0B
:1080D00021018243240182432601C243210132D07F
:0C80E000F00003433040EA800013FF3F33
:10FF800030803080308030803080308030803080F1
:10FF900030803080308030803080308030803080E1
:10FFA00030803080308030803080308030803080D1
:10FFB00030803080308030803080308030803080C1
:10FFC00030803080308030803080308030803080B1
:10FFD00030803080308030803080308030803080A1
:10FFE0003080308030803080308030803080308091
:10FFF00030803080308030803080308030800080B1
:040000030000800079
:00000001FF
