:10FC000031408002B240805A20013F4000000F93F3
:10FC100005242F839F4F96FE0002FB233F400E00DA
:10FC20000F9304241F83CF430002FC23304034FC95
:10FC3000304094FE314080020441B240805A20019D
:10FC400082430202053C1F4202021F53824F0202FE
:10FC50001F4202023F90FEFFF62BC2433500D24303
:10FC600036005F422E006FD3C24F2E005F422A0043
:10FC70006FD3C24F2A00824300023F40420FB012AE
:10FC8000B6FD1F4200025E425600CF4E06021F53D1
:10FC9000824F00021F4200025E425700CF4E060212
:10FCA0001F53824F00023F40720BB012B6FD1F423D
:10FCB00000025E425600CF4E06021F53824F0002E2
:10FCC0001F4200025E425700CF4E06021F53824F72
:10FCD00000023F40A107B012B6FD1F4200025E4283
:10FCE0005600CF4E06021F53824F00021F420002F1
:10FCF0005E425700CF4E06021F53824F00023F4024
:10FD0000F400B012B6FD1F4200025E425600CF4E14
:10FD100006021F53824F00021F4200025E4257003C
:10FD2000CF4E06021F53824F0002B240C0100402A1
:10FD3000B24042A52A01B24002A52801B24040A526
:10FD40002C011F420402CF430000B24040A528010D
:10FD5000B240F810040282430002103C1F42040229
:10FD60001E4200025E4E0602CF4E00001F53824F1D
:10FD700004021F4200021F53824F00021F42000272
:10FD80003F92EC3BB24000A52801B24050A52C01A7
:10FD90005F4235005FE3C24F350082430202053CFB
:10FDA0001F4202021F53824F02021F4202023F9073
:10FDB0000040F62BED3F04123150FAFF0441844F0E
:10FDC0000400844300005F4257007FD03000C24FE0
:10FDD0005700B24000516601B24024026001073C66
:10FDE0000343053C0343033C0343013C03431F42DD
:10FDF00066011FF3FC271F4266011FC3824F660185
:10FE0000944276010200A48402009442760100002C
:10FE10009494020004000E20824366018243600134
:10FE20005F4257007FF0CFFFC24F570031500600AE
:10FE300034413041949402000400152C5F42560076
:10FE40007F53C24F56005F4256007F93C9235F42E3
:10FE500057007FF33FF00F00C5275F4257007F53E5
:10FE6000C24F5700C43F5F4256005F53C24F560017
:10FE70005F4256004F93B8235F4257007FF33FF035
:10FE80000F003F900F00B2275F4257005F53C24FF1
:06FE90005700AD3F001316
:10FFE00030FC30FC30FC30FC30FC30FC30FC30FCB1
:10FFF00030FC30FC30FC30FC30FC30FC30FC00FCD1
:040000030000FC00FD
:00000001FF
